{
  "transactions": [
    {
      "hash": "0xf08a2eb0da780d1dcec3c0daa63d2a26548084446856ab0e2e205b9fa7772cbf",
      "transactionType": "CALL",
      "contractName": null,
      "contractAddress": "0x5e004185a592832b3fd3cdce364da3bdf2b08a3d",
      "function": "addVoucher(uint256,string,uint256)",
      "arguments": [
        "1",
        "ipfs://bafybeiagu456r4ooezdhwsof3zw4xljlh7jqknwm5vibfrusoyk4ctik3m",
        "10000000000000000000"
      ],
      "transaction": {
        "from": "0x694b4107ce4c7b14711e26c8bb7cb3795cd8bd84",
        "to": "0x5e004185a592832b3fd3cdce364da3bdf2b08a3d",
        "gas": "0x2f4af",
        "value": "0x0",
        "input": "0xf3898926000000000000000000000000000000000000000000000000000000000000000100000000000000000000000000000000000000000000000000000000000000600000000000000000000000000000000000000000000000008ac7230489e800000000000000000000000000000000000000000000000000000000000000000042697066733a2f2f6261667962656961677534353672346f6f657a646877736f66337a7734786c6a6c68376a716b6e776d35766962667275736f796b346374696b336d000000000000000000000000000000000000000000000000000000000000",
        "nonce": "0x7",
        "chainId": "0x14a34"
      },
      "additionalContracts": [],
      "isFixedGasLimit": false
    },
    {
      "hash": "0xf1897c007ab5f6d38728ffbacf8007a7415b2ce71227d5a9c39962cf998ca208",
      "transactionType": "CALL",
      "contractName": null,
      "contractAddress": "0x5e004185a592832b3fd3cdce364da3bdf2b08a3d",
      "function": "addVoucher(uint256,string,uint256)",
      "arguments": [
        "2",
        "ipfs://bafkreibnb22hce2ouqqiwy7hgk57rzgjb6u3nygwikg7wjehnh6i7xkewe",
        "20000000000000000000"
      ],
      "transaction": {
        "from": "0x694b4107ce4c7b14711e26c8bb7cb3795cd8bd84",
        "to": "0x5e004185a592832b3fd3cdce364da3bdf2b08a3d",
        "gas": "0x2f4c0",
        "value": "0x0",
        "input": "0xf389892600000000000000000000000000000000000000000000000000000000000000020000000000000000000000000000000000000000000000000000000000000060000000000000000000000000000000000000000000000001158e460913d000000000000000000000000000000000000000000000000000000000000000000042697066733a2f2f6261666b726569626e623232686365326f7571716977793768676b3537727a676a623675336e796777696b6737776a65686e68366937786b657765000000000000000000000000000000000000000000000000000000000000",
        "nonce": "0x8",
        "chainId": "0x14a34"
      },
      "additionalContracts": [],
      "isFixedGasLimit": false
    }
  ],
  "receipts": [
    {
      "status": "0x1",
      "cumulativeGasUsed": "0xf2d9d",
      "logs": [
        {
          "address": "0x5e004185a592832b3fd3cdce364da3bdf2b08a3d",
          "topics": [
            "0xd28111a7d9dc212ff24de5ac3b694fb5e86ae5076dcac9a544de1a1eaf2b9492",
            "0x0000000000000000000000000000000000000000000000000000000000000001"
          ],
          "data": "0x00000000000000000000000000000000000000000000000000000000000000400000000000000000000000000000000000000000000000008ac7230489e800000000000000000000000000000000000000000000000000000000000000000042697066733a2f2f6261667962656961677534353672346f6f657a646877736f66337a7734786c6a6c68376a716b6e776d35766962667275736f796b346374696b336d000000000000000000000000000000000000000000000000000000000000",
          "blockHash": "0x32fa55f28b2947a599acb83cdeadcdfaba33137bc78c5b37d8f66175287749ce",
          "blockNumber": "0x1f29321",
          "blockTimestamp": "0x68f88522",
          "transactionHash": "0xf08a2eb0da780d1dcec3c0daa63d2a26548084446856ab0e2e205b9fa7772cbf",
          "transactionIndex": "0x6",
          "logIndex": "0xc",
          "removed": false
        }
      ],
      "logsBloom": "0x00000000000000000000000000000000000000000000000000000000000000000000040000000000000000000000000000000000000000000000000000040000000000000000000000000000000000000000000000040000000000400000000000000000000000000000000000000000000000000000000000000000000000000000000000000000000000000000000100001020000000000000000000000000000000000000000000000000000000000000000000000000000000000000000000000000000000000100000000000000000000000000000000000000000040000000000000000000000000000000000000000000000000000000000000000000",
      "type": "0x2",
      "transactionHash": "0xf08a2eb0da780d1dcec3c0daa63d2a26548084446856ab0e2e205b9fa7772cbf",
      "transactionIndex": "0x6",
      "blockHash": "0x32fa55f28b2947a599acb83cdeadcdfaba33137bc78c5b37d8f66175287749ce",
      "blockNumber": "0x1f29321",
      "gasUsed": "0x223d4",
      "effectiveGasPrice": "0xf429a",
      "from": "0x694b4107ce4c7b14711e26c8bb7cb3795cd8bd84",
      "to": "0x5e004185a592832b3fd3cdce364da3bdf2b08a3d",
      "contractAddress": null,
      "l1BaseFeeScalar": "0x44d",
      "l1BlobBaseFee": "0x1",
      "l1BlobBaseFeeScalar": "0xa118b",
      "l1Fee": "0x7e",
      "l1GasPrice": "0xb",
      "l1GasUsed": "0x942"
    },
    {
      "status": "0x1",
      "cumulativeGasUsed": "0x11a385",
      "logs": [
        {
          "address": "0x5e004185a592832b3fd3cdce364da3bdf2b08a3d",
          "topics": [
            "0xd28111a7d9dc212ff24de5ac3b694fb5e86ae5076dcac9a544de1a1eaf2b9492",
            "0x0000000000000000000000000000000000000000000000000000000000000002"
          ],
          "data": "0x0000000000000000000000000000000000000000000000000000000000000040000000000000000000000000000000000000000000000001158e460913d000000000000000000000000000000000000000000000000000000000000000000042697066733a2f2f6261666b726569626e623232686365326f7571716977793768676b3537727a676a623675336e796777696b6737776a65686e68366937786b657765000000000000000000000000000000000000000000000000000000000000",
          "blockHash": "0x32fa55f28b2947a599acb83cdeadcdfaba33137bc78c5b37d8f66175287749ce",
          "blockNumber": "0x1f29321",
          "blockTimestamp": "0x68f88522",
          "transactionHash": "0xf1897c007ab5f6d38728ffbacf8007a7415b2ce71227d5a9c39962cf998ca208",
          "transactionIndex": "0x8",
          "logIndex": "0xd",
          "removed": false
        }
      ],
      "logsBloom": "0x04000000000000000000000000000000000000000000000000000000000000000000040000000000000000000000000000000000000000000000000000000000000000000000000000000000000000000000000000000000000000400000000000000000000000000000000000000000000000000000000000000000000000000000000000000000000000000000000100001020000000000000000000000000000000000000000000000100000000000000000000000000000000000000000000000000000000000100000000000000000000000000000000000000000000000000000000000000000000000000000000000000008000000000000000000000",
      "type": "0x2",
      "transactionHash": "0xf1897c007ab5f6d38728ffbacf8007a7415b2ce71227d5a9c39962cf998ca208",
      "transactionIndex": "0x8",
      "blockHash": "0x32fa55f28b2947a599acb83cdeadcdfaba33137bc78c5b37d8f66175287749ce",
      "blockNumber": "0x1f29321",
      "gasUsed": "0x223e0",
      "effectiveGasPrice": "0xf429a",
      "from": "0x694b4107ce4c7b14711e26c8bb7cb3795cd8bd84",
      "to": "0x5e004185a592832b3fd3cdce364da3bdf2b08a3d",
      "contractAddress": null,
      "l1BaseFeeScalar": "0x44d",
      "l1BlobBaseFee": "0x1",
      "l1BlobBaseFeeScalar": "0xa118b",
      "l1Fee": "0x7f",
      "l1GasPrice": "0xb",
      "l1GasUsed": "0x94f"
    }
  ],
  "libraries": [],
  "pending": [],
  "returns": {},
  "timestamp": 1761117474,
  "chain": 84532,
  "commit": "0cb2896"
}